:020000040800F2
:100000000000022011C20008A96E0008E56E000879
:10001000F96E0008FD6E0008016F00080000000086
:10002000000000000000000000000000714B00080C
:10003000056F000800000000014C0008096F00086F
:1000400065C2000865C2000865C2000865C20008F4
:1000500065C2000865C20008D170000865C20008CA
:10006000D9700008E1700008E97000080D6F000801
:1000700065C20008196F000865C20008256F0008F6
:10008000316F000865C20008E16F00083D6F00088D
:10009000496F00084D6F0008516F0008F1700008AB
:1000A00065C200089170000865C2000865C20008BA
:1000B00065C2000865C2000865C20008B970000882
:1000C000C570000865C2000865C2000865C2000866
:1000D00065C2000865C2000865C2000865C2000864
:1000E0001971000865C2000865C2000865C20008F1
:1000F000A5700008556F000865C2000865C20008B9
:1001000065C2000865C2000875700008716F0008BC
:100110007D6F000865C2000865C2000865C200085E
:1001200065C2000865C2000865C2000865C2000813
:1001300065C20008000000000000000065C2000861
:1001400065C2000865C2000865C20008896F000822
:1001500065C2000865C2000865C2000865C20008E3
:1001600065C2000865C2000865C2000865C20008D3
:1001700065C2000865C20008000000000000000021
:0801800065C2000865C2000819
:1001900010B5054C237833B9044B13B10448AFF3C1
:1001A00000800123237010BDF00600200000000035
:1001B0006C8D020808B5034B1BB103490348AFF32C
:1001C000008008BD00000000F40600206C8D0208CD
:1001D00010F8012B11F8013B012A28BF9A42F7D0F1
:1001E000D01A7047034613F8012B002AFBD1181AC6
:1001F000013870470000000000000000000000000F
:1002000001F0FF01102A2BDB10F0070F08D010F8C7
:10021000013B013A8B422DD010F0070F42B3F6D1CB
:10022000F0B441EA012141EA014122F007047FF0E4
:1002300000070023F0E80256083C85EA010586EA3B
:10024000010685FA47F5A3FA87F586FA47F6A5FA77
:1002500087F68EB9EED1F0BC01F0FF0102F0070283
:1002600032B110F8013B013A83EA010313B1F8D12E
:100270000020704701387047002D06BF354603380F
:10028000073815F0010F07D1013015F4807F02BF48
:10029000013015F4C03F0130F0BC0138704700BF99
:1002A00081F0004102E000BF83F0004330B54FEA27
:1002B00041044FEA430594EA050F08BF90EA020F94
:1002C0001FBF54EA000C55EA020C7FEA645C7FEA27
:1002D000655C00F0E2804FEA5454D4EB5555B8BF4A
:1002E0006D420CDD2C4480EA020281EA030382EABB
:1002F000000083EA010180EA020281EA0303362D4D
:1003000088BF30BD11F0004F4FEA01314FF4801C1F
:100310004CEA113102D0404261EB410113F0004F31
:100320004FEA03334CEA133302D0524263EB4303E8
:1003300094EA050F00F0A780A4F10104D5F1200E86
:100340000DDB02FA0EFC22FA05F2801841F10001E1
:1003500003FA0EF2801843FA05F359410EE0A5F1B5
:1003600020050EF1200E012A03FA0EFC28BF4CF0E6
:10037000020C43FA05F3C01851EBE37101F000459C
:1003800007D54FF0000EDCF1000C7EEB00006EEBA9
:100390000101B1F5801F1BD3B1F5001F0CD3490833
:1003A0005FEA30004FEA3C0C04F101044FEA44528A
:1003B00012F5800F80F09A80BCF1004F08BF5FEA11
:1003C000500C50F1000041EB045141EA050130BDF1
:1003D0005FEA4C0C404141EB0101013C28BFB1F503
:1003E000801FE9D291F0000F04BF01460020B1FA4E
:1003F00081F308BF2033A3F10B03B3F120020CDA21
:100400000C3208DD02F1140CC2F10C0201FA0CF0FE
:1004100021FA02F10CE002F11402D8BFC2F1200C63
:1004200001FA02F120FA0CFCDCBF41EA0C01904019
:10043000E41AA2BF01EB0451294330BD6FEA040462
:100440001F3C1CDA0C340EDC04F11404C4F120024D
:1004500020FA04F001FA02F340EA030021FA04F35F
:1004600045EA030130BDC4F10C04C4F1200220FAB6
:1004700002F001FA04F340EA0300294630BD21FAF4
:1004800004F0294630BD94F0000F83F4801306BFBA
:1004900081F480110134013D4EE77FEA645C18BFAE
:1004A0007FEA655C29D094EA050F08BF90EA020F45
:1004B00005D054EA000C04BF1946104630BD91EA3D
:1004C000030F1EBF0021002030BD5FEA545C05D140
:1004D0004000494128BF41F0004130BD14F580047F
:1004E0003CBF01F5801130BD01F0004545F0FE41F3
:1004F00041F470014FF0000030BD7FEA645C1ABF28
:10050000194610467FEA655C1CBF0B46024650EA5E
:10051000013406BF52EA033591EA030F41F400218A
:1005200030BD00BF90F0000F04BF0021704730B510
:100530004FF4806404F132044FF000054FF00001E5
:1005400050E700BF90F0000F04BF0021704730B5A6
:100550004FF4806404F1320410F0004548BF40427B
:100560004FF000013EE700BF42004FEAE2014FEAD0
:1005700031014FEA02701FBF12F07F4393F07F4FAB
:1005800081F06051704732F07F4208BF704793F0AE
:100590007F4F04BF41F40021704730B54FF46074C1
:1005A00001F0004521F000411CE700BF50EA0102C4
:1005B00008BF704730B54FF000050AE050EA01026D
:1005C00008BF704730B511F0004502D5404261EBDD
:1005D00041014FF4806404F132045FEA915C3FF41E
:1005E000D8AE4FF003025FEADC0C18BF03325FEABB
:1005F000DC0C18BF033202EBDC02C2F1200300FA6C
:1006000003FC20FA02F001FA03FE40EA0E0021FA90
:1006100002F11444BDE600BF70B54FF0FF0C4CF47E
:10062000E06C1CEA11541DBF1CEA135594EA0C0F30
:1006300095EA0C0F00F0DEF82C4481EA030621EA6B
:100640004C5123EA4C5350EA013518BF52EA0335A6
:1006500041F4801143F4801338D0A0FB02CE4FF058
:100660000005E1FB02E506F00042E0FB03E54FF088
:100670000006E1FB03569CF0000F18BF4EF0010E80
:10068000A4F1FF04B6F5007F64F5407404D25FEA7C
:100690004E0E6D4146EB060642EAC62141EA55512F
:1006A0004FEAC52040EA5E504FEACE2EB4F1FD0C71
:1006B00088BFBCF5E06F1ED8BEF1004F08BF5FEAEF
:1006C000500E50F1000041EB045170BD06F00046A1
:1006D00046EA010140EA020081EA0301B4EB5C044E
:1006E000C2BFD4EB0C0541EA045170BD41F4801146
:1006F0004FF0000E013C00F3AB8014F1360FDEBF6B
:10070000002001F0004170BDC4F10004203C35DA46
:100710000C341BDC04F11404C4F1200500FA05F3C9
:1007200020FA04F001FA05F240EA020001F000426A
:1007300021F0004110EBD37021FA04F642EB0601E0
:100740005EEA430E08BF20EAD37070BDC4F10C040A
:10075000C4F1200500FA04F320FA05F001FA04F2CE
:1007600040EA020001F0004110EBD37041F10001BA
:100770005EEA430E08BF20EAD37070BDC4F12005C5
:1007800000FA05F24EEA020E20FA04F301FA05F22D
:1007900043EA020321FA04F001F0004121FA04F2D5
:1007A00020EA020000EBD3705EEA430E08BF20EAA5
:1007B000D37070BD94F0000F0FD101F000464000DF
:1007C00041EB010111F4801F08BF013CF7D041EA61
:1007D000060195F0000F18BF704703F00046520065
:1007E00043EB030313F4801F08BF013DF7D043EA36
:1007F0000603704794EA0C0F0CEA135518BF95EAEC
:100800000C0F0CD050EA410618BF52EA4306D1D172
:1008100081EA030101F000414FF0000070BD50EA91
:10082000410606BF1046194652EA430619D094EA1B
:100830000C0F02D150EA013613D195EA0C0F05D105
:1008400052EA03361CBF104619460AD181EA030159
:1008500001F0004141F0FE4141F470014FF0000011
:1008600070BD41F0FE4141F4780170BD70B54FF0AC
:10087000FF0C4CF4E06C1CEA11541DBF1CEA13552C
:1008800094EA0C0F95EA0C0F00F0A7F8A4EB05040E
:1008900081EA030E52EA03354FEA013100F0888005
:1008A0004FEA03334FF0805545EA131343EA1263CE
:1008B0004FEA022245EA111545EA10654FEA002683
:1008C0000EF000419D4208BF964244F1FD0404F53C
:1008D000407402D25B084FEA3202B61A65EB030598
:1008E0005B084FEA32024FF480104FF4002CB6EB55
:1008F000020E75EB030E22BFB61A754640EA0C00D5
:100900005B084FEA3202B6EB020E75EB030E22BF14
:10091000B61A754640EA5C005B084FEA3202B6EB55
:10092000020E75EB030E22BFB61A754640EA9C0014
:100930005B084FEA3202B6EB020E75EB030E22BFE4
:10094000B61A754640EADC0055EA060E18D04FEAA2
:10095000051545EA16754FEA06164FEAC30343EA42
:1009600052734FEAC2025FEA1C1CC0D111F4801F0F
:100970000BD141EA00014FF000004FF0004CB6E708
:1009800011F4801F04BF01430020B4F1FD0C88BFA7
:10099000BCF5E06F3FF6AFAEB5EB030C04BFB6EBB2
:1009A000020C5FEA500C50F1000041EB045170BDA5
:1009B0000EF0004E4EEA113114EB5C04C2BFD4EBD2
:1009C0000C0541EA045170BD41F480114FF0000E56
:1009D000013C90E645EA060E8DE60CEA135594EAD2
:1009E0000C0F08BF95EA0C0F3FF43BAF94EA0C0FD5
:1009F0000AD150EA01347FF434AF95EA0C0F7FF44A
:100A000025AF104619462CE795EA0C0F06D152EA9D
:100A100003353FF4FDAE1046194622E750EA410681
:100A200018BF52EA43067FF4C5AE50EA41047FF492
:100A30000DAF52EA43057FF4EBAE12E74FF0FF3CF7
:100A400006E000BF4FF0010C02E000BF4FF0010CC8
:100A50004DF804CD4FEA410C7FEA6C5C4FEA430C41
:100A600018BF7FEA6C5C1BD001B050EA410C0CBF90
:100A700052EA430C91EA030F02BF90EA020F0020F2
:100A8000704710F1000F91EA030F58BF994208BF59
:100A900090422CBFD8176FEAE37040F00100704716
:100AA0004FEA410C7FEA6C5C02D150EA013C07D16D
:100AB0004FEA430C7FEA6C5CD6D152EA033CD3D0B8
:100AC0005DF8040B704700BF8446104662468C46B2
:100AD0001946634600E000BF01B5FFF7B7FF0028E5
:100AE00048BF10F1000F01BD4DF808EDFFF7F4FF0E
:100AF0000CBF012000205DF808FB00BF4DF808ED99
:100B0000FFF7EAFF34BF012000205DF808FB00BFBB
:100B10004DF808EDFFF7E0FF94BF012000205DF8DD
:100B200008FB00BF4DF808EDFFF7CEFF94BF012092
:100B300000205DF808FB00BF4DF808EDFFF7C4FF8B
:100B400034BF012000205DF808FB00BF4FEA410CD4
:100B50007FEA6C5C02D150EA013C0AD14FEA430CB7
:100B60007FEA6C5C02D152EA033C02D14FF00000F4
:100B700070474FF0010070474FEA410212F5001232
:100B800015D211D56FF47873B3EB625212D94FEAD4
:100B9000C12343F0004343EA505311F0004F23FABE
:100BA00002F018BF404270474FF00000704750EA13
:100BB000013005D111F0004008BF6FF000407047D0
:100BC0004FF00000704700BF4A0011D212F500122A
:100BD00011D20DD56FF47873B3EB62520ED44FEA95
:100BE000C12343F0004343EA505323FA02F0704715
:100BF0004FF00000704750EA013002D14FF0FF3053
:100C000070474FF0000070474FEA4102B2F1E043F5
:100C100024BFB3F5001CDCF1FE5C0DD901F0004CE3
:100C20004FEAC0024CEA5070B2F1004F40EB830033
:100C300008BF20F00100704711F0804F21D113F15F
:100C40003872BCBF01F00040704741F480114FEA98
:100C50005252C2F11802C2F1200C10FA0CF320FA21
:100C600002F018BF40F001004FEAC1234FEAD3233E
:100C700003FA0CFC40EA0C0023FA02F34FEA4303A8
:100C8000CCE77FEA625307D150EA01331EBF4FF031
:100C9000FE4040F44000704701F0004040F0FE404C
:100CA00040F40000704700BF7BB972B90029BEBF95
:100CB00000204FF0004106E008BF00281CBF6FF085
:100CC00000414FF0FF3001F041B9ADF1080C6DE982
:100CD00004CE002909DB002B1ADB00F083F8DDF8D5
:100CE00004E0DDE9022304B07047404261EB4101BA
:100CF000002B1BDB00F076F8DDF804E0DDE90223D1
:100D000004B0404261EB4101524263EB4303704740
:100D1000524263EB430300F065F8DDF804E0DDE9DF
:100D2000022304B0404261EB41017047524263EB41
:100D3000430300F057F8DDF804E0DDE9022304B0D6
:100D4000524263EB4303704753B94AB9002908BFC5
:100D500000281CBF4FF0FF314FF0FF3001F0F6B814
:100D6000ADF1080C6DE904CE00F03CF8DDF804E0CC
:100D7000DDE9022304B0704738B5002200230446A1
:100D80000D46FFF7BBFE28B920462946BDE838408E
:100D900000F00AB8204605F1004100F005F8404295
:100DA00061EB410138BD00BFD0B50C4B00220646B7
:100DB0000F46FFF731FCFFF707FF0446FFF7B2FBD2
:100DC000074B0022FFF728FC02460B463046394607
:100DD000FFF76AFAFFF7F8FE2146D0BD0000F03DAC
:100DE0000000F0412DE9F047089D04468C46002B99
:100DF00040F083808A42174647D9B2FA82F242B164
:100E0000C2F1200024FA00F09140974040EA010C22
:100E100094404FEA1748230CBCFBF8F61FFA87FEF4
:100E200008FB16C143EA014306FB0EF1994209D9BA
:100E3000FB1806F1FF3080F01981994240F21681CB
:100E4000023E3B445B1AA4B2B3FBF8F008FB10333C
:100E500044EA034400FB0EFEA64509D93C1900F103
:100E6000FF3380F00581A64540F2028102383C4400
:100E700040EA0640A4EB0E0400261DB1D440002336
:100E8000C5E900433146BDE8F08702B9FFDEB2FA9A
:100E900082F2002A50D1CB1B4FEA174E1FFA87F877
:100EA0000126B3FBFEFC210C0EFB1C3341EA03417F
:100EB00008FB0CF38B4207D979180CF1FF3002D2F2
:100EC0008B4200F2E9808446C91AA3B2B1FBFEF05E
:100ED0000EFB101143EA014408FB00F8A04507D9B6
:100EE0003C1900F1FF3302D2A04500F2D980184628
:100EF000A4EB080440EA0C40BFE78B4209D9002D5F
:100F000000F0B1800026C5E9000130463146BDE859
:100F1000F087B3FA83F6002E4AD18B4202D3824285
:100F200000F2B880841A61EB030101208C46002D89
:100F3000A8D0C5E9004CA5E7C2F1200320FA03F6CA
:100F4000974001FA02F04FEA174ED9403043030CA4
:100F5000B1FBFEF61FFA87F80EFB161143EA0143B8
:100F600006FB08F1994204FA02F409D9FB1806F1CC
:100F7000FF3C80F08D80994240F28A80023E3B44E3
:100F80005B1A81B2B3FBFEF00EFB103341EA034162
:100F900000FB08F38B4207D9791800F1FF3C73D2AC
:100FA0008B4271D902383944CB1A40EA064678E7B9
:100FB000C6F1200C03FA06F422FA0CF31C4320FAC3
:100FC0000CF701FA06F34FEA144E21FA0CF11F4315
:100FD0003B0CB1FBFEF91FFA84F80EFB191143EA32
:100FE000014109FB08FA8A4502FA06F200FA06F303
:100FF00008D9611809F1FF3048D28A4546D9A9F1CC
:1010000002092144A1EB0A01BFB2B1FBFEF00EFBC5
:10101000101147EA014700FB08F8B84507D9E7195E
:1010200000F1FF312ED2B8452CD90238274440EACE
:101030000940A7EB0807A0FB02894F45C646494671
:101040001AD317D05DB1B3EB0E0267EB010707FAB5
:101050000CFCF2404CEA0202F740C5E900270026EA
:101060003146BDE8F0872E4628460BE70646E9E6FE
:101070001846FDE64345E5D2B8EB020E69EB0401E4
:101080000138DFE70846D2E760468DE78146B9E7D9
:10109000664675E730464AE7ACF1020C394413E77F
:1010A00002383C4424E700BF03685A004CBF43F0B9
:1010B000004323F000431844704700BF2DE9F84374
:1010C00029B34F1E044615463E464FF0000808EB74
:1010D000060101EBD171491004EBC1094846FFF745
:1010E000E3FF0346C80008308F42204409D0AB42DA
:1010F00009D8FFF7D9FF0138A8420AD201F1010847
:10110000E5E7AB4205D9884501D04E1EDFE74FF039
:1011100000094846BDE8F883012807D0022807D017
:10112000044B00280CBF1846002070470248704747
:1011300002487047DD170008E1170008E5170008AE
:1011400030B5234B83B004468D1E3BB301A928461E
:10115000AFF30080E8B101992A46FFF7AFFF0146DF
:10116000B8B1FFF7A1FF4B68A064012B2BD0002B77
:1011700001F1040023DBFFF797FF0023C4E9130309
:101180000368002B10DBFFF78FFF2061002003B006
:1011900030BD00230920236103B030BD0D490E4846
:1011A000091AC9100191D7E7C3F30360FFF7B4FF31
:1011B0000028206114BF0020092003B030BD0123A6
:1011C000C4E91303DCE7002323610520DFE700BF48
:1011D0000000000074CF0208D4C802080368DA07D0
:1011E00010B5044606D49B0700F1480009D500F06D
:1011F0004BFC2368590709D51A070ED5DB0613D512
:1012000010BD00F039FC23685907F5D404F1D00073
:1012100000F042FC23681A07F0D404F5A87000F02F
:1012200043FC2368DB06EBD404F5E870BDE810400E
:1012300000F07EBC0346006800B11844704700BF50
:1012400009207047704700BF70B504460E46316CE8
:101250002046FFF775FF054688B9336C6361324657
:1012600023692146012098470828F0D0072806D195
:101270002846316CFFF7E6FF301D00F0F1FB22F04D
:10128000EFFB00BF2DE9F0470D1D064614460FCDBC
:10129000ADF5727D0DF10C0CACE80F000FCDACE894
:1012A0000F000FCDACE80F0095E80F0002ADF76816
:1012B000D6F818808CE80F0000232B6021E02B6CFF
:1012C00073614FF4F07229467AA822F03BFC33692F
:1012D0007AAA314650469847889BCDE90058214666
:1012E0006B648146334632460120B8470446E8B96C
:1012F0004FF4F0727AA9284622F024FCB9F1080FC5
:101300001BD1296C3046FFF71BFF09345FFA84FAC2
:1013100081460028D3D0AB6B4AF01001CDE90058CC
:1013200032466B6401203346B84708B14FF00909D3
:1013300048460DF5727DBDE8F087B9F1070FF5D18C
:101340002046296CFFF77EFF03A800F089FB00BF51
:10135000406C7047F0B5CB6B0B640E1D0F46054615
:101360000FCEF9B001AC0FC40FCE0FC40FCE0FC417
:1013700096E80F004FF0FF3684E80F00009606E075
:101380002B696A46294698470828044608D11099CF
:101390002846FFF7D5FE0028F2D0092079B0F0BD2D
:1013A0006846FFF71BFF062CF7D139462846FFF7A2
:1013B0004BFF00BF30B4DD6BC160826119461D6414
:1013C000002230BC5EE700BF70B5C66843690B649D
:1013D000AEB903690A4604460D4601460220984705
:1013E000072805D008280FD129462046FFF72CFFF3
:1013F0003046296CFFF726FF281D00F031FB012243
:10140000FFF740FF22F02CFB22F02AFBC2681AB142
:10141000CA6B0A64002235E79CE700BF704700BF33
:10142000836801460BB1012018477047012912D08B
:1014300009D873B90F2A0CD800EB820218465368FA
:10144000009A136070470339012994BF01200220DC
:101450007047022070470846704700BF10B584B03F
:10146000002303AC0A4600941946FFF7DFFF0398F8
:1014700004B010BD012912D009D873B90F2A0CD8B5
:1014800000EB8200009A12684260184670470339E8
:10149000012994BF012002207047022070470846AE
:1014A000704700BF10B584B0002303AC03920094D2
:1014B0000A461946FFF7DEFF04B010BDF0B5D36B46
:1014C0001364151D8C4606460FCDADF50F7D17AC88
:1014D0000FC40FCD0FC40FCD0FC495E80F004FF010
:1014E000FF3784E80F006546169710E0FFF7DAFF34
:1014F000294616A8B047034616AA6946082083B9AC
:10150000049B9847052804460CD0092809D0269941
:101510006846FFF715FE03466A460C2116A8002B05
:10152000E4D0092416A8FFF759FE20460DF50F7DDB
:10153000F0BD00BF2DE9F04FCC6C89B00D4654F8DA
:10154000041B0694174600F003081E46002B79D0B2
:101550000B0CDAB209048DF81D30022304EB82046F
:1015600005918DF81C302B6DB8F1020F08BFAC6BE4
:1015700013F001030CD0384605A900F073FB18B92D
:10158000082009B0BDE8F08F092009B0BDE8F08F50
:10159000D4F800A0BAF1000FEDD0019300F00803D9
:1015A0000293022E4AD0B4F800A0B4F8029004349A
:1015B000AA6C29F0010B0F2138469344FFF74EFF28
:1015C000834539D82AF001025A44824294BF002050
:1015D00001204FEA490303F002030AF0010A43EA3B
:1015E0000A03012B49D0022B32D0002BCCD1B8F109
:1015F000000F02D0002840F0CD800434D4F800A0C1
:10160000BAF1000FCDD105A9384600F02BFB002818
:10161000BAD1019B002BB3D00F213846FFF71EFF34
:101620000E2102463846FFF73DFF38466A4A0F2131
:10163000FFF738FF0720A8E70020CAE7D4F8049096
:101640000834B5E7090203230591ADF81C308AE799
:10165000236823F0004BB8F1000F45D128B1029A5E
:10166000002A5CD0BBF1000F74D0002B00DA0434E8
:101670000BF1010B04EB8B04C0E7B8F1000F19D19B
:10168000B0B1D4E90023991C4FEAD2723FF47CAF89
:1016900005F158010133049100F09080201DFFF7FF
:1016A000C9FD04AB0146284621F0B8F900285BD1FA
:1016B0000834A3E70D213846D5F82090FFF7CEFE79
:1016C0008145F5D1AB6A9C42F2D12046FFF7ECFC94
:1016D0000F2102463846FFF7E5FE38462A4600212C
:1016E000FFF7E0FE072050E70D213846D5F820909F
:1016F000FFF7B4FE814501D02368B6E7AB6A9C4290
:10170000FAD104220021C5E90B12A318C5F828B0AC
:101710006B6323688B4259DB01230193A8E705F132
:101720005803CDF80C8004F1040AB04691461E46D9
:101730000DE00496FFF77EFD04AB0146002228462B
:1017400021F06CF909F101090AF1040AE8B9D94557
:101750005046EED138460D21FFF780FE049B2862EB
:10176000C5E90934062010E781460D213846FFF708
:1017700075FEB9F1020F286225D12B46049A43F871
:101780002C2F6B62AC620620FFE646462368DDF82C
:101790000C806AE72046FFF787FC04340246AC63FE
:1017A0002846144621F098F900283FF4EDAE38465B
:1017B00022460F21FFF776FE0720E6E638460D2188
:1017C000FFF74CFE2862049B6B62DBE70BF1010024
:1017D00004EB80007AE700BFD13602080023A9E6B7
:1017E0000123A7E60223A5E62DE9F0430646C3B090
:1017F00015461C46042900F2B980DFE801F09A532F
:10180000B7290300002C40F0B180102A00F2AE800E
:101810000368D80600F1F38020AF384600F092F953
:10182000B06B0023012404FA03F22A42014604D0DB
:1018300051F8042B47F8232008460133042BF2D13A
:10184000B063384600F074F9002043B0BDE8F0837F
:10185000032C40F08B8094B204EB1243102B4FEA20
:10186000124500F2838003681F0700F1D08020AF8B
:10187000384600F03BF907EBC501B56B54B10B4698
:10188000E81A01EBC401E4001A5843F8042B8B4218
:10189000FAD125443846B56300F006F9002043B07C
:1018A000BDE8F083012C4FEA124895B25AD0052CBE
:1018B0005CD108EB0509B9F1200F57D8B8F10F0F2B
:1018C00077D9A946002D40F08880B36B6DB320AF67
:1018D0004FF0000907EBC807043F03EBC50553F8B9
:1018E000041B47F8041FAB42F9D1B9F1000F0FD028
:1018F0006F464146102938BF102107EBC1018439DA
:1019000003EBC90553F8040B41F8040FAB42F9D1BE
:10191000012C00F08480B8F10F0FB56345D9B9F1FF
:10192000000F02D0684600F0B7F8002043B0BDE8D1
:10193000F083DCB9876B2346012094B206F1040CD6
:1019400000FA03F22242394604D051F8042B4CF835
:1019500023200F460133102BF2D115F40050E4D1AF
:10196000B76304E008EB0503102B03D9022043B052
:10197000BDE8F083B8F10F0FF8D83368DA0706D561
:10198000304623F0030340F8483B00F079F820AFDD
:10199000384600F075F8B36B002D99D11D4604351B
:1019A000B563384600F068F8BFE720A800F06CF88F
:1019B000B5E7B9F1100F40D9A9F110093368D9077B
:1019C00008D523F00103304643F0020340F8483BBA
:1019D00000F05EF8B9F1000F32D033685A0720D416
:1019E000B8F10F0F25D96F463846C8F1100500F041
:1019F00057F8002DB36B7FF77CAF20AF6AE723F079
:101A00001003336006F5E87000F09CF804E723F05B
:101A10000803036000F5A87000F068F827E720AF1E
:101A2000BDE7304623F0040340F8D03B00F038F81F
:101A3000D6E720A800F02CF8D5E74FF00009BDE765
:101A4000B8F10F0F3FF641AF20AF384600F020F855
:101A5000B36B002D7FF43CAF384600F015F864E717
:101A600000F1340191E838009C46A6464CF8045D2C
:101A700090E8FF0FE54600BD90EC210B704700BFDA
:101A800080EC210B704700BF90EC200B704700BF2B
:101A900080EC200B704700BFD0EC200B704700BFDC
:101AA000C0EC200B704700BFF0EC0201F0EC02111B
:101AB000F0EC0221F0EC0231F0EC0241F0EC0251CA
:101AC000F0EC0261F0EC0271F0EC0281F0EC0291BA
:101AD000F0EC02A1F0EC02B1F0EC02C1F0EC02D1AA
:101AE000F0EC02E1F0EC02F1704700BFE0EC020123
:101AF000E0EC0211E0EC0221E0EC0231E0EC02410A
:101B0000E0EC0251E0EC0261E0EC0271E0EC0281F9
:101B1000E0EC0291E0EC02A1E0EC02B1E0EC02C1E9
:101B2000E0EC02D1E0EC02E1E0EC02F1704700BF32
:101B3000B0FC0181B0FC0191B0FC01A1B0FC01B18D
:101B4000704700BFA0FC0181A0FC0191A0FC01A195
:101B5000A0FC01B1704700BFEC4600B52DE9005074
:101B60002DE9FF1F4FF000032DE90C0001A9FFF73D
:101B7000F1FBDDF840E012B0704700BFEC4600B565
:101B80002DE900502DE9FF1F4FF000032DE90C0057
:101B900001A9FFF719FCDDF840E012B0704700BF63
:101BA000EC4600B52DE900502DE9FF1F4FF0000372
:101BB0002DE90C0001A9FFF729FCDDF840E012B087
:101BC000704700BFEC4600B52DE900502DE9FF1F1E
:101BD0004FF000032DE90C0001ABFFF7EBFBDDF844
:101BE00040E012B0704700BFEC4600B52DE9005050
:101BF0002DE9FF1F4FF000032DE90C0001AAFFF7AC
:101C00005DFCDDF840E012B0704700BF027A7AB99F
:101C1000437AA3B14268013B10B4437213680321B5
:101C2000141D01721A024460026010BC180E704745
:101C30000368013A02721A020260180E7047B0205F
:101C4000704700BF00B585B003AA00230092194673
:101C50000C22FFF7EBFB039805B05DF804FB00BF17
:101C6000F0E700BF2DE9F043054685B00E464FF082
:101C700000083046FFF7CAFFB028044600F0B280E3
:101C8000070620D500F0F003802B4DD0902B36D0E6
:101C9000A02B60D0B02B74D0C02B00F08B8000F054
:101CA000F803D02B0BD100F00702013242F40022DE
:101CB000052301212846FFF797FD0028D9D00920E8
:101CC00005B0BDE8F0830DF10C090023194687002B
:101CD000CDF800900D222846FFF7A8FBFFB2039B2A
:101CE000CDF80090043760064CBFDF1BFF180023BF
:101CF00019460D2228460397FFF7BCFBB9E700F011
:101D00000D030D2BDBD003AF002300F00F021946AB
:101D100000972846FFF78AFB0023009719460D22FB
:101D20002846FFF7A7FBA4E73046FFF76FFF240222
:101D30002043B0F5004FC2D004010023A2B21946DF
:101D40002846FFF751FD0028B9D114F4004F18BF01
:101D50004FF001088DE7C24302F007034FF47F62A2
:101D60001A41010702F47F624FF0000348BF42F4BA
:101D7000804219462846FFF737FD00283FF479AF27
:101D80009DE7B12833D0B22800F08B80B32839D03A
:101D900000F0FC03B42B92D000F0070201320123C3
:101DA00042F4002219462846FFF71EFD00283FF4A2
:101DB00060AF84E7C62842D0C7284CD000F0F803B3
:101DC000C02B5BD0C82860D0C9287FF478AF3046DC
:101DD000FFF71CFF020300F00F0002F47022013035
:101DE000024365E7B8F1000F18D0002068E73046DD
:101DF000FFF70CFF024600283FF461AF10F0F0033C
:101E0000D0D05CE73046FFF701FF010300F00F0080
:101E100001F47021421C01230A43C3E703AC43468B
:101E20000E22414600942846FFF700FB0094284606
:101E300043460F224146FFF71DFB404640E7304630
:101E4000FFF7E4FE010300F00F0001F47021421CD3
:101E500003230A43A6E73046FFF7D8FE02460028D0
:101E60003FF42DAF10F0F0037FF429AF0421284692
:101E7000FFF7BAFC00283FF4FCAE20E700F00F02A9
:101E80000132032342F420228CE73046FFF7BEFEE6
:101E900000F0F00200F00F031032013343EA023287
:101EA00006E700230DF10C090D221946CDF800902C
:101EB0002846FFF7BBFA3046FFF7A8FE02064FF0B0
:101EC00002070CD5039B00F07F00B8400344304666
:101ED0000393FFF79BFE030607F10707F2D4039B6A
:101EE000CDF8009000F07F0403F50172BC400023A0
:101EF000144419460D2228460394FFF7BBFAB8E6AE
:101F000010B5C26C84B0536803248DF80C401B02DA
:101F100002F108040846D279019301A902948DF8D0
:101F20000D20FFF79FFE04B010BD00BF08B5FFF7FE
:101F300097FE806C08BD00BF08B5FFF791FEC06C2E
:101F4000C379023300EB830008BD00BF704700BFB8
:101F5000F1EE103A43F08073E1EE103A704700BFA3
:101F60000849CA6810B400024FF6FF04224000F48A
:101F7000E063134343F0BF6343F400335DF8044B65
:101F8000CB60704700ED00E0194BDB68C3F3022320
:101F900030B4C3F10705042D03F1040428BF042560
:101FA000062C19D9033B4FF0FF349C4022EA04026F
:101FB0004FF0FF34AC4021EA04019940002841EA87
:101FC00002010CDB00F1604000F561400901C9B27B
:101FD00080F8001330BC704700221346E8E7054B39
:101FE00000F00F0009010344C9B2197630BC7047F4
:101FF00000ED00E0FCEC00E000F01F01034A4009A6
:1020000001238B4042F82030704700BF00E100E020
:1020100043090549203300F01F00012202FA00F0B5
:1020200041F82300704700BF00E100E00138B0F143
:10203000807F0ED2084B10B4084C5860F02084F812
:1020400023000022072110469A605DF8044B1960B6
:1020500070470120704700BF10E000E000ED00E095
:10206000044A136804280CBF43F0040323F004035C
:102070001360704710E000E038B5134602250A46A9
:10208000C0E90633C0F8F451002102F02FFC002013
:1020900038BD00BF08B513460A46002102F026FCF1
:1020A000002008BD38B5134603250A46C0E942336F
:1020B000C0F8F451002102F027FC002038BD00BF19
:1020C00008B513460A46002102F01EFC002008BD98
:1020D00008B504220023C0F8F42119461A4602F07C
:1020E00005FC002008BD00BF08B505220023C0F88C
:1020F000F42119461A4602F007FC002008BD00BF73
:1021000030B5014689B000222D20FFF73DFF2D207C
:10211000FFF772FF0025164B02951A6C154C42F41E
:1021200080721A641B6C03F4807301A9029303A8E4
:10213000029B05F047FB05F025FB0F4A0F4925617F
:102140004300A2FB03239B0C013B40F2E7322046F5
:10215000C4E901352160E26008F0D4FA10B1012031
:1021600009B030BD204608F01FF809B030BD00BFEF
:1021700000380240B4F2002083DE1B430020004000
:1021800000287CD038B590F820300446002B73D05E
:102190002268136823F00203136004F04DFD054626
:1021A00004E004F049FD431B0A2B5CD823685A68FD
:1021B0009107F6D41A6842F001021A6004F03CFD5F
:1021C000054604E004F038FD401B0A284BD823687C
:1021D0005A68D207F6D5227E012A1A680CBF42F04F
:1021E000800222F080021A60627E012A1A680CBF07
:1021F00042F0400222F040021A60A27E012A1A68D0
:102200000CBF42F0200222F020021A60E27E012A76
:102210001A680CBF22F0100242F010021A60227FEE
:10222000012A1A680CBF42F0080222F008021A6064
:10223000627F012A1A680CBF42F0040222F00402F5
:102240001A60D4E90221D4E904500A4361682A43A0
:10225000024301390A4301250021DA61616284F8F1
:102260002050084638BD636A052243F40033636298
:1022700084F82020012038BD04F0ACFF88E701205D
:10228000704700BF90F82030012B09D090F8203023
:10229000022B05D0436A43F4802343620120704738
:1022A0003B4BD3F8002242F00102F0B4C3F8002205
:1022B000D3F8002222F47C52C3F80022D3F8002283
:1022C000486A42EA0022C3F800224A69D3F81C4255
:1022D0000120904024EA0004C3F81C42CD69C443A5
:1022E000002D45D1D3F80C522540C3F80C52D20032
:1022F000CF688D888E680B8802F1804202F5C84253
:1023000045EA074543EA0643C2F84052C2F8443260
:102310008B691F4A33BBD2F804322340C2F804321F
:102320000B69C3B91A4BD3F814221440C3F81442F2
:102330000B6A012B05D1164AD2F81C321843C2F899
:102340001C02134AD2F8003223F001030020F0BC33
:10235000C2F8003270470E4AD2F814320343C2F872
:102360001432E5E7D2F804320343C2F80432D7E767
:10237000012DCDD1D3F80C520543C3F80C52D20035
:102380000F688D888E688B8902F18042B6E700BFA6
:102390000064004070B590F82030012B044606D050
:1023A000436A012643F400234362304670BD02684D
:1023B000DEB2022380F82030136823F0010313609B
:1023C00004F03AFC054604E004F036FC431B0A2BFB
:1023D00008D823685B6813F00103F5D11E466362D9
:1023E000304670BD636A052243F40033636284F8AB
:1023F0002020304670BD00BF38B590F82030022B49
:10240000044605D0436A43F480134362012038BD7B
:102410000268136843F00103136004F00DFC0546E5
:1024200004E004F009FC431B0A2B0CD823685A680B
:10243000D207F6D51A68012122F002021A6084F848
:102440002010002038BD636A052243F40033636224
:1024500084F82020012038BD70B490F82040012C71
:102460000AD090F82040022C06D0436A43F480231F
:10247000436270BC012070470468A5686D0105D4F3
:10248000A5682E0102D4A568ED0039D5A068012504
:10249000C0F3016085401D608B6843B3CD684E6812
:1024A0002B4300F118052D0143EAC603635104EBE9
:1024B00000130D69C3F88451097D01294FEA00100A
:1024C00005D1D3F8841141F48071C3F88411044418
:1024D0005168C4F88C111268C4F88821D3F880219F
:1024E00042F00102002070BCC3F8802170470E68E2
:1024F000CD6800F118031B0145EA4655E550D6E7C3
:10250000436A43F40013436270BC0120704700BF6C
:1025100090F82030012B05D090F82030022B01D00C
:1025200000207047036898689A689B681201C0F39E
:10253000806048BF0130DB00F3D50130704700BF39
:102540002DE9F04190F82050012D04460AD090F872
:102550002000022806D0636A43F4802363620120CE
:10256000BDE8F081256800295AD1E86886076CD05B
:1025700005EB01100F01D0F8B06106F0040696607B
:10258000002E58D1D0F8B061760D1660D0F8B0E1C9
:10259000D0F8B4C1D0F8B461D0F8B4013D44CEF362
:1025A000400ED5F8B881C6F307260CF00F05000CD5
:1025B000C2E903E5C2E9050683F8008022683A44CF
:1025C000D2F8B821120A5A7022683A44D2F8B821D7
:1025D000120C9A7022683A44D2F8B821120EDA70BE
:1025E00022683A44D2F8BC211A7122683A44D2F8DF
:1025F000BC21120A5A7122683A44D2F8BC21120C4A
:102600009A7122681744D7F8BC21120EDA71B9B951
:102610002268D36843F020030846D360BDE8F08108
:102620000129A5D128698007A2D1636A43F4001368
:102630000846636294E7D0F8B061F6085660A5E7F3
:10264000012909D00020BDE8F081636A43F400133A
:1026500063620120BDE8F0812268136943F0200322
:10266000136100207CE700BF90F82030012B05D0DB
:1026700090F82030022B01D000207047036819B970
:10268000D86800F003007047186900F00300704735
:1026900090F82030012B09D090F82030022B05D083
:1026A000436A43F480234362012070470268536900
:1026B000194351610020704790F82030012B09D058
:1026C00090F82030022B05D0436A43F48023436204
:1026D000012070470268536923EA0101516100201B
:1026E000704700BF2DE9F84F03685C69D3F8048098
:1026F0009F68D3F80CB0D3F810A0D3F8189014F05A
:10270000010605461ED017F0010653D1F8050BD57A
:102710002B684FF48072B9059A6000F1C0807A0589
:1027200040F1D88046F40056F8030BD52B684FF4DF
:102730008032B9039A6000F1AA807A0340F1CF8019
:1027400046F40046270702D51BF0100F6DD1600735
:1027500003D51BF0080F40F09380A10704D52B6828
:10276000DB689A0740F08880630602D51AF0100FE4
:1027700055D1A70602D51AF0080F64D1E00603D59B
:102780002B681B69990765D1A20302D518F0100FB9
:1027900064D1E30302D518F0080F66D1270405D5EC
:1027A00018F0040F14D12B6804225A60002E42D175
:1027B000BDE8F88F01229A60BB076CD47E0700F158
:1027C000868017F0080600F095804FF480569DE74C
:1027D000E00504D519F0010F18BF46F00106A10568
:1027E00004D519F0020F18BF46F00206620504D5A1
:1027F00019F0040F18BF46F004062305D3D519F0CD
:102800007009D0D0B9F1400F7FD04CD8B9F1200F6A
:102810006DD0B9F1300F54D146F020064BE02B6853
:10282000102246F480661A61A3E72B68102246F452
:102830000076DA608BE76B6A1E436E6228461FF0F3
:1028400011FDBDE8F88F2B6808221A6128461FF099
:1028500003FD93E728461FF0FDFC95E72B68102247
:102860005A6028461FF0FAFC93E72B6808225A604A
:1028700028461FF0F5FC91E728461FF0DDFC73E7C2
:102880002B680822DA6028461FF0E2FC65E728463C
:102890001FF0CAFC56E71FF0C3FC002636E72846A7
:1028A0001FF0C0FC40E7B9F1500F1DD0B9F1600F27
:1028B00008BF46F480762B689A6922F070029A610C
:1028C00072E7B9F1100FF6D146F00806F3E74FF4BE
:1028D00000661BE73B0514D546F4804624E73B031E
:1028E0000BD546F480362DE746F08006E3E746F048
:1028F0001006E0E71FF09AFC08E728461FF09AFC54
:1029000020E728461FF094FC0EE746F04006D2E789
:10291000406A704790F82030012B09D090F82030A1
:10292000022B05D0436A43F48023436201207047A1
:1029300000234362184670470B4B01E0013B10D067
:102940000269002AFADA0369074A43F001030361C6
:1029500001E0013A05D0036913F00103F9D11846EB
:1029600070470320704700BF400D030084B070B56E
:102970000A9E05AD012E85E80E00044623D1836B27
:10298000119A23F480338363C36823F4840323F010
:102990004003C360C368012A23F44013C3601CD002
:1029A0002046FFF7C9FF089B012B07D1A36843F01E
:1029B0000603A360A36843F02003A360BDE8704052
:1029C000002004B07047C36843F04003C360FFF7C2
:1029D000B3FF4FF48033A363E5E7C36843F4801388
:1029E000C360DDE7034600209A6842F001029A6066
:1029F000704700BF034600209A6822F001029A60E7
:102A0000704700BF08B5C368012923F0C043C36005
:102A100009D019B9C36843F08043C360322004F081
:102A200011F9002008BDC36843F00053C360322091
:102A300004F008F9002008BD84B02DE9704307AC0C
:102A400084E80E00119C0A9D836B002C40F08B8063
:102A500043F4001383630023C0F8003E0C9BD0F8BE
:102A60000028C0F80028012B00F5006600F08E80D9
:102A7000D0F8003843F00303C0F800384FF4846303
:102A80000361494B01E0013B02D002699206FAD48E
:102A900010230361444B01E0013B02D00269D206DE
:102AA000FAD400224FF0FF3332617261B361F261F8
:102AB00091B3964600F510634FF090494FF0FF0830
:102AC000D3F800C00132BCF1000FB4BFC3F80090CE
:102AD000C3F800E08A42C3F810E0C3F8088003F1AD
:102AE0002003EDD10022964600F530634FF0904967
:102AF0004FF0FF08D3F800C00132BCF1000FB4BFA3
:102B0000C3F80090C3F800E08A42C3F810E0C3F8AD
:102B1000088003F12003EDD13369012D23F4807384
:102B2000336124D000226FF08043826143611DB97C
:102B3000836943F01003836181691C4B0D9A0B4339
:102B400083611AB1836943F008038361012C05D1C5
:102B5000836943F0804343F004038361BDE870431D
:102B6000002004B0704743F40023836373E7104BE5
:102B70003363336B43F4803343F003033363002246
:102B80006FF08043316B82614361D5E7099B23B9C4
:102B9000D0F80038C0F8003870E7D0F8003843F0BB
:102BA0000103C0F8003869E7400D030000383C809D
:102BB00000018000890141F02001064A016101E025
:102BC000013A05D0036913F02003F9D11846704784
:102BD00003207047400D030000F50063D0F808089B
:102BE00010F0060012D09A6802F00602022A0CD0F9
:102BF0009A6802F00602062A07D09B6803F00603D3
:102C0000042B14BF0020022070470320704700BF30
:102C100030B44B78012B20D00C78D0F81C584FF4EE
:102C2000803300F50062A34000F530602B4300EBD9
:102C30004410D36103681B040CD48B680468CA7801
:102C4000C3F30A03234343EA824343F0805343F42C
:102C500000430360002030BC70470A78D0F81C584D
:102C6000934000F500649BB200F510602B4300EB2D
:102C70004210E36103681C04ECD48B680468C978D3
:102C8000C3F30A03234343EA814343EA825343F0F5
:102C9000805343F40043036030BC0020704700BF02
:102CA00070B44B78012B28D00D782B4A00F5306199
:102CB00001EB45114FF000660B684FF0804423F4A0
:102CC00000430B600E600C6001E0013A41D08B685C
:102CD00013F01003F9D1D0F8044844F48064C0F82C
:102CE000044800F500624FF48030D169A84021EA21
:102CF000000170BC1846D16170470C78164B00F586
:102D0000106101EB44114FF000660A684FF08045F6
:102D100022F400420A600E600D6001E0013B18D011
:102D20008A685500FAD44FF4846303610A4B01E0CA
:102D3000013B02D002699206FAD40123D0F81C2884
:102D4000A3409BB222EA0303C0F81C3870BC0020E9
:102D50007047032070BC7047400D03002DE970439D
:102D60004C78012C49D00D784C6900F5306303EBA9
:102D700045131D69ED0CED041D611D6925F0FF551E
:102D800025F4C0151D616CB38D68654ED3F810C075
:102D90002C44013CB4FBF5F406EAC44646EA0C06B2
:102DA0001E61A4B205FB04F41D69C4F312042C4394
:102DB0001C61012A04BFCA685A61CA78012A0AD173
:102DC000D0F8082812F4807F1A680CBF42F0005235
:102DD00042F080521A601A6842F004421A600020E1
:102DE000BDE870838C681D69C4F312042C431C6118
:102DF0001C6944F400241C61DBE74D690E78DDB3E7
:102E000000F5106303EB4613D1F80890D3F8108057
:102E1000DFF80CC14FEAD8484FEAC848C3F8108021
:102E2000D3F8108028F0FF5828F4C018C3F8108099
:102E3000D3F8108005EB090E0EF1FF3EBEFBF9FE44
:102E40000CEACE4C4CEA080CC3F810C0D3F810E0E2
:102E5000C5F3120C4CEA0E0CC3F810C091F803C075
:102E6000BCF1010F4CD0012A57D0B440D0F83468DF
:102E70003443C0F83448AEE700F5106303EB461363
:102E8000012A1C6924F0FF5424F4C0141C611C693D
:102E900044F400241C611C694FEAD4444FEAC44442
:102EA0001C6191F803C024D0BCF1010F93D1D0F87C
:102EB000084814F4807F1C680CBF44F0005444F0B0
:102EC00080541C601C6844F004441C60002A86D1B5
:102ED000ADB20335AD0882D0CB6800F5805003EB6E
:102EE000850100EB063653F8042B32609942FAD183
:102EF00075E70C695C61BCF1010F7FF46CAFD6E73C
:102F00001C6924F0C0441C611C69012A44F000546F
:102F10001C61CCD10C695C61C9E70A695A615AE746
:102F20000000F81F4B78012B70B427D00B784C6948
:102F300000F5306000EB43100369DB0CDB04036138
:102F4000036923F0FF5323F4C01303618B689CB91A
:102F5000046944F4002404610469C3F312032343A5
:102F6000012A036104BFCB684361036843F0044353
:102F70000360002070BC70474B61E9E74C690E7834
:102F8000002C32D000F5106303EB4613D1F808C0D3
:102F90001D69ED0CED041D611D6925F0FF5525F43B
:102FA000C0151D611D69644545F4002588BFC1F841
:102FB00014C01D611D6988BF6446C4F312042C430C
:102FC0001C611C68012A44F004441C6027D04B6932
:102FD000002BCED0D0F83428012303FA06F616438E
:102FE000C0F83468002070BC704700F5106303EB34
:102FF0004613012A1C6924F0FF5424F4C0141C61F8
:103000001C6944F400241C611C694FEAD4444FEA53
:10301000C4441C611C6844F004441C60D7D10A6994
:103020005A61002070BC704710B49DF804406CB920
:1030300003339B080AD000F5805000EB023201EB0D
:10304000830351F8040B10608B42FAD100205DF825
:10305000044B7047033292080CD010B400F5805432
:1030600001EB8200236841F8043B8842FAD15DF805
:10307000044B7047084670474B78012B0B7810D0F3
:1030800000F5306000EB43100368002B03DB03689E
:1030900023F080430360036843F4001303600020BF
:1030A000704700F5106000EB43100368002BEEDA68
:1030B000F1E700BF4B78012B0B780CBF00F51060D7
:1030C00000F5306000EB4310036823F40013036045
:1030D000CB78023B012B03D8036843F08053036095
:1030E00000207047D0F8003823F4FE63C0F80038A1
:1030F000D0F80038090101F4FE611943C0F8001846
:103100000020704708B5D0F8042822F0020200F52C
:10311000006303205A6003F095FD002008BD00BF46
:1031200008B5D0F8042842F0020200F5006303203D
:103130005A6003F087FD002008BD00BF4269806926
:1031400010407047D0F8183800F50060C06918408A
:10315000000C7047D0F8183800F50060C0691840BE
:1031600080B2704700F5306303EB411100F5006059
:103170008A6840691040704710B4D0F81048D0F801
:10318000342800EB411000F5106022FA01F1CB0168
:103190008068DBB2234318405DF8044B704700BFE2
:1031A000406900F001007047D0F8003923F4FF6354
:1031B00023F0070300F50062C0F80039936803F0BC
:1031C0000603042B05D1D0F8003943F00303C0F8FF
:1031D0000039536843F4807353600020704700BF88
:1031E00010B40024C0F8104BD0F8104B44F4002465
:1031F000C0F8104BD0F8104B44F01804C0F8104B36
:10320000D0F8104B012944F0C044C0F8104B05D150
:103210004FF08021C0F8142BC0F8001B00205DF88F
:10322000044B704730B589B00023702501240C226F
:1032300001A9CDE90154CDE90333CDE90533079365
:1032400007F026FC09B030BD30B51848184B0360B4
:103250008DB04FF6FF72002301240325C26003A93D
:103260000422C0E9013303610493069308930A938F
:1032700003950594099407920B9207F0B3FA48B9A5
:1032800000230A4801A9CDE9013300F093FB30B9CE
:103290000DB030BD0748EA2101F0C0F9F0E705485C
:1032A000F12101F0BBF90DB030BD00BFA4F3002047
:1032B00000040040508E020830B51948194B0360D5
:1032C0008DB04FF6FF72002301240325C26003A9CD
:1032D0000422C0E9013303610493069308930A931F
:1032E00003950594099407920B9207F07BFA48B96D
:1032F00000230B4801A9CDE9013300F05BFB38B98D
:103300000DB030BD084840F20B1101F087F9EFE72E
:1033100005484FF4897101F081F90DB030BD00BF4F
:103320002CF3002000080040508E020810B52248FF
:10333000224B036086B000234FF0FF32C0E9013317
:10334000C260036107F032FAE8B900231A486946FF
:10335000CDE9003300F02EFB40BB0A2201200024FF
:103360000F230292039002A913480822CDE90443D7
:1033700007F0C8FAA0B9104802A90C2207F0C2FA57
:1033800038B906B010BD0E4840F2231101F046F9DD
:10339000DBE70B484FF49C7101F040F906B010BD1B
:1033A000074840F2331101F039F9E4E704484FF4DB
:1033B000957101F033F9D0E768F30020000C00406C
:1033C000508E02080A4808B50A4B036042F6031201
:1033D0000023C0E90133C260036107F093F900B92B
:1033E00008BDBDE80840044840F2851101F016B957
:1033F000E0F30020001C0040508E020800B51B4A7C
:103400000368934283B005D0194A934218D003B0A1
:103410005DF804FB0022174B0092596C41F001014A
:1034200059645B6C03F00103009311461920009B63
:10343000FEF7AAFD192003B05DF804EBFEF7DCBD32
:1034400000220C4B0192196C41F0800119641B6C35
:1034500003F08003019311462C20019BFEF794FD9D
:103460002C2003B05DF804EBFEF7C6BD0000014060
:10347000001C00400038024000B50368B3F1804FE3
:1034800083B005D0194A934212D003B05DF804FB13
:1034900003F50E33002200921A6C42F001021A6406
:1034A0001B6C03F001030093009B03B05DF804FB69
:1034B00000220F4B0192596C41F0020159645B6C80
:1034C00003F00203114601932C20019BFEF75CFDE3
:1034D0002C20FEF791FD002211462D20FEF754FD11
:1034E0002D2003B05DF804EBFEF786BD000401401B
:1034F0000038024030B51B4A0368934289B004D0BB
:10350000194A93421BD009B030BD02F50D32002399
:103510000193116C154841F002011164126C05937E
:1035200002F002020192019D3024022203A9CDE99A
:1035300003420693079207F079FD09B030BD02F50A
:103540000C3200230293116C084841F0040111640D
:10355000126C059302F004020292029DC024022222
:1035600003A9E4E700040040000800400004024012
:10357000144B02689A4200D0704730B587B00024DF
:1035800003F50B3300941A6C0F4842F008021A64DA
:103590001B6C039403F0080300930C22022301A97F
:1035A000CDE901230593009D049407F03FFD2246D9
:1035B00005213220FEF7E8FC3220FEF71DFD07B0A2
:1035C00030BD00BF000C00400000024070B5294A29
:1035D0000368934286B007D0B3F1804F1FD0264ACC
:1035E00093422CD006B070BD4FF46043234801A92C
:1035F000022600240125CDE90136CDE903440595D5
:1036000007F014FD1E4801A94FF4E063CDE9026400
:10361000CDE90445019307F009FD06B070BD002314
:103620000122164805924FF44065022401A9CDE914
:103630000154CDE9033307F0F9FC06B070BD8023D7
:1036400003250F48059501A902260024CDE901367E
:10365000CDE9034407F0EAFC0848059501A9CDE946
:103660000156CDE9034407F0E1FC064801A94FF4F7
:10367000E073CBE700000140000401400004024079
:10368000000002400008024030B55248524B03602F
:1036900095B00023602440F6AC510222C0E90241FB
:1036A00042614360036107F02DF800285BD14FF4BD
:1036B00080534848029302A906F04EFE002840F0CD
:1036C0008380444807F056F8002878D1414807F035
:1036D00035F800286ED1202200233E486946CDE906
:1036E000002300F067F900285FD1002270233948D9
:1036F000069306A9CDE90722CDE90922CDE90B22DF
:1037000007F0F6F900284BD13248042206A907F049
:10371000EFF900283FD12F48082206A907F0E8F961
:10372000002833D100232B48069306A90C2207F06A
:10373000AFF930BB4FF4006000234FF480651424D0
:103740004FF400520D900DA922481193CDE90E536C
:1037500013931094129200F053F948B91D48FFF7E3
:1037600035FF15B030BD1D48652100F057FF9EE7BD
:10377000A4211A4800F052FF1648FFF727FF15B0A2
:1037800030BD1648982100F049FFD3E71348922135
:1037900000F044FFC6E711488D2100F03FFFBAE773
:1037A0000E48882100F03AFFAEE70C487C2100F07B
:1037B00035FF9AE70948752100F030FF8BE707488D
:1037C000702100F02BFF81E704486B2100F026FFF9
:1037D00077E700BF1CF4002000000140508E020873
:1037E00010B5264800238AB04FF0804460214FF482
:1037F0008052C0E9021204604360036106F0BAFF20
:1038000020BB00231D4801A9CDE9013300F0D2F807
:1038100078BB702000230224039003A91748049367
:1038200008220793059407F063F9E8B941F201040F
:103830000023124803A90C22CDE9044307F058F9EC
:1038400048B90E48FFF7C2FE0AB010BD0C48B721B8
:1038500000F0E4FED5E7CE21094800F0DFFE07487E
:10386000FFF7B4FE0AB010BD0548C72100F0D6FE30
:10387000DCE70348BE2100F0D1FECAE758F400207F
:10388000508E020830B53C483C4B036091B0002399
:10389000602440F6AC510222C0E90241426143601B
:1038A000036106F067FF00283ED120220023324842
:1038B0006946CDE9002300F07DF8002856D10022AA
:1038C00070232D48029302A9CDE90322CDE90522F8
:1038D000CDE9072207F00CF9002841D1264804223F
:1038E00002A907F005F9002834D1234802A90822CB
:1038F00007F0FEF840BB4FF4006000234FF48065F2
:1039000014244FF40052099009A91B480D93CDE9E6
:103910000A530F930C940E9200F072F850B91648A7
:10392000FFF754FE11B030BD154840F24B1100F0C6
:1039300075FEBAE74FF4BA71114800F06FFE0E48F9
:10394000FFF744FE11B030BD0D484FF4B47100F0E4
:1039500065FED0E70A4840F2631100F05FFEC4E75D
:1039600007484FF4AF7100F059FEB7E704484FF431
:10397000A97100F053FEA2E7F0F20020000401401C
:10398000508E020803680422186A02FA01F120EA44
:10399000010018621A6A114319625A6C42F400421B
:1039A0005A641A6842F001021A600020704700BF92
:1039B000FFF7E8BF90F83830012B1ED002460220F6
:1039C000136870B482F839005C6824F07004D1E99F
:1039D00000565C60586828435860986820F0800062
:1039E00098609968002401253143996082F8395024
:1039F00082F83840204670BC70470220704700BFF4
:103A000090F83830012B22D030B4D1E9025304466B
:103A100023F44073D1E900202B4323F48063034354
:103A200023F40063D1E90450134323F480532B4360
:103A300023F4005389692268034323F440430B4372
:103A40000021536484F83810084630BC70470220C7
:103A5000704700BF704700BF704700BF30B40568B3
:103A60006B6A29B943EA0243AB62002030BC70475D
:103A7000A86A4C1E03EB10400CD0002319464031BD
:103A800005EB810101334968DBB2A34200EB114031
:103A90001946F4DB403405EB840440EA02406060E0
:103AA000002030BC704700BF036800205962704797
:103AB00000B583B01B4B00220092196B41F400113A
:103AC0001963196B01F40011009100990192196BAF
:103AD00041F4800119631B6B03F4800301930521FA
:103AE0000B20019BFEF750FA0B20FEF785FA00220F
:103AF00005210D20FEF748FA0D20FEF77DFA002281
:103B000005210F20FEF740FA0F20FEF775FA00227C
:103B100005211020FEF738FA102003B05DF804EB01
:103B2000FEF76ABA003802402DE9F04180460F46A0
:103B300016461D46D8F8003001E06A1C0AD19C6880
:103B400037EA04020CBF01240024A642F5D100206C
:103B5000BDE8F0813DB103F06FF8069BC01AA842A2
:103B6000E8D3D8F800305A68D8F8041022F0E00200
:103B7000B1F5827F5A6016D0D8F82820B2F5005FE0
:103B800007D00122002388F8512088F85030032004
:103B9000DEE71A684DF6FF710A401A601A6842F4AF
:103BA00000521A60EDE7D8F80820B2F5004F02D0B5
:103BB000B2F5806FE0D11A6822F040021A60DBE7AC
:103BC00000283BD070B590F851200023044602F045
:103BD000FF01836262B31846D4E90135D4E90321B9
:103BE0002B4313436269E569266A0B431343A269B9
:103BF00021682B43022584F85150334302F40075A9
:103C00000E682B43120C656A02F0040203432A4338
:103C100026F040060E600B604A60CB69002223F458
:103C200000630125CB61626584F85150104670BD78
:103C300080F8501000F0A6FEA06ACDE70120704782
:103C400090B10268022310B580F85130136823F058
:103C500040030446136000F01FFF0020606584F8F5
:103C6000500084F8510010BD012070472DE9F04349
:103C7000044690F85000012885B067D01D46012306
:103C800084F850300E46914602F0D6FF94F8513039
:103C9000012B07465FFA83F80BD04FF00208012290
:103CA0000023404684F8512084F8503005B0BDE828
:103CB000F083002EF3D0B9F1000FF0D0032384F885
:103CC0005130A268266300236365C4E91033A4F869
:103CD0003690A363E387A3872368A4F83490B2F5F2
:103CE000004F02BF1A6842F480421A601A685206F6
:103CF00003D41A6842F040021A60E268B2F5006F1D
:103D0000626829D0002A4CD0E28E92B2012A48D0B3
:103D1000E38E9BB25BB94CE016F8012B1A73E38E6D
:103D2000013B9BB2E386E28E92B2002A41D0236827
:103D30009A689207F0D435B16B1CF4D002F07CFF86
:103D4000C01BA842EFD34FF00308A8E74FF00208CA
:103D5000404605B0BDE8F083002A4BD136F8022B6F
:103D6000DA60E28E013A92B2E286E28E92B25AB9FB
:103D70001FE036F8022BDA60E38E013B9BB2E3864C
:103D8000E38E9BB2ABB123689A689007F1D4002D03
:103D9000D9D0691CF4D002F04FFFC01BA842EFD36A
:103DA000D1E716F8012B1A73E38E013B9BB2E38631
:103DB000AEE700972B46012202212046FFF7B4FE12
:103DC0000028C0D1024600972B4680212046FFF7ED
:103DD000ABFEA0B9A36833B922680393D3680393F9
:103DE00093680393039B636DB3F1000818BF4FF012
:103DF000010854E7E28E92B2012AB6D1AEE7636DB4
:103E0000202213436365626549E700BF2DE9F04353
:103E1000044690F8500085B001280C9F00F0858082
:103E20009946012384F850300E46154602F004FFEF
:103E300094F851206368012A8046D1B211D0B3F5BD
:103E4000827F09D002200122002384F8512084F8C7
:103E5000503005B0BDE8F083A268002AF2D10429F1
:103E6000F0D1002E65D0002D63D0B9F1000F60D0E5
:103E700094F851202168012A04BF052284F85120BA
:103E800000226265A4F83E90A4F836900868A56305
:103E9000C4E910224206A4F83C902663A4F83490AA
:103EA00003D40A6842F040020A60E268B2F5006F8B
:103EB00041D0002B70D0E38E9BB2012B6CD04FF021
:103EC0000109E38E9BB21BB9E38F9BB2002B43D059
:103ED000B9F1000F0FD0E38E9BB263B123689A68EB
:103EE000920708D516F8012B1A73E38E013B9BB29B
:103EF0004FF00009E386E38F9BB263B121688B68C2
:103F000013F0010307D0CA6805F8012BE18F0139CE
:103F100089B29946E1877B1CD3D002F08DFEA0EBDD
:103F20000800B842CDD303208DE7022005B0BDE8DC
:103F3000F083012087E7002B62D136F8023BCB608B
:103F4000E38E013B9BB2E3864FF00109E38E9BB207
:103F500053BBE38F9BB23BBBCDF800803B460122B5
:103F600002212046FFF7E0FD0028DCD10246CDF813
:103F700000803B4680212046FFF7D6FD002844D133
:103F8000A368002B7FF45FAF23680390DA68039285
:103F90009B680393039B56E716F8013B0B73E38E74
:103FA000013B9BB2E3868AE7B9F1000F0FD0E38EA5
:103FB0009BB263B123689A68900708D536F8022B44
:103FC000DA60E38E013B9BB2E3864FF00009E38F9A
:103FD0009BB263B12268936813F0010307D0D268E3
:103FE00025F8022BE28F013A92B29946E287791CBA
:103FF000ACD002F021FEA0EB0800B842A6D392E7B5
:10400000E38E9BB2012B9FD197E7636D2022134370
:1040100063650120626516E770B5044690F85000AC
:10402000012865D094F851000125A842C6B284F851
:1040300050500DD06068B0F5827F04D0022000237C
:1040400084F8503070BDA0680028F7D1042EF5D157
:1040500000294BD0002A49D0002B47D094F85100BA
:104060002163012804BF052084F851000020606509
:10407000E386E38794F85150A386042DA387C4E90F
:10408000100007BF1B491C4B1C491D4BE06CA26371
:104090001C4DC0E90F31E38F2168C56400259BB238
:1040A0000C31056501F090F92268A06C5368216B12
:1040B00043F001035360E38E05640C329BB2C0E908
:1040C0001355C56301F080F923681A68520603D4BA
:1040D0001A6842F040021A605A6842F020025A60A0
:1040E0005A6842F002025A600020A8E70120A6E7C1
:1040F000022070BD1141000855410008214100080F
:10410000A541000831410008704700BF704700BF5B
:1041100008B5806BFFF7FAFF08BD00BF704700BF0E
:1041200008B5806BFFF7FAFF08BD00BF704700BFFE
:10413000806B026808B5536823F003035360436D36
:10414000012143F01003436580F85110FFF7EEFFA3
:1041500008BD00BF08B50368806B1B68DB050FD482
:10416000D0E900215368B1F5827F23F00303536047
:1041700009D001230022C28780F85130436D73B902
:10418000FFF7C2FF08BD8368B3F5004F02D0B3F557
:10419000806FEED1136823F040031360E9E7FFF767
:1041A000C5FF08BD30B5054683B0846B02F044FD01
:1041B0002B681A6812F4807213D100906423802156
:1041C0002046FFF7B1FC88B921684B68002223F034
:1041D000030301204B60E286E28784F85100636D9F
:1041E0006BB9204609F0B0FA03B030BD636D43F0FF
:1041F00020036365636D43F020036365E4E72046B5
:10420000FFF794FF03B030BD026830B55168936882
:1042100003F04105012D85B0044656D09D0701D518
:10422000080659D413F4B07F4DD08D064BD55806EF
:104230000ED594F85100032854D0606D002540F04D
:10424000040060650095D068009090680090009828
:104250009D060CD5606D002540F00100606502955B
:1042600090680290106820F0400010600298D80515
:1042700008D5636D002043F00803636503909368DD
:104280000393039B636DF3B1536823F0E003536022
:1042900001208B0784F8510012D05368E06C23F0A2
:1042A0000303536018B1134B036501F017F9A06CB9
:1042B00048B1104B036505B0BDE8304001F00EB9C0
:1042C0002046FFF733FF05B030BD4D06A6D5036C81
:1042D00005B0BDE830401847636C204605B0BDE826
:1042E0003040184700230193D368019393680193EA
:1042F000019BE8E7F942000808B5806B0023C387FB
:10430000C386FFF713FF08BD38B5084C084D206879
:104310004FF0FF3104F05AFB0028F8D1284601F095
:10432000CFFB4320FDF768FEF1E700BFA4F40020B7
:10433000B0F4002008B502F00BFF0DF011FC034BA8
:104340001868BDE8084005F0F5B800BF94F40020F7
:1043500030B5074D0FCD87B001AC0FC42B6823607B
:10436000002101A804F056FA024B186007B030BDD6
:10437000888D0208A8F4002070B58AB000240121BD
:104380006846009404F00CFB1E4B1F4E186021463B
:1043900004F01CFB012101A8019404F001FB1B4B5C
:1043A00002940246012102A81A6004F0F9FA184B9F
:1043B0002146186004F00AFB012103A8039404F0CD
:1043C000EFFA144B04940246012104A81A6004F089
:1043D000E7FA114B2146186004F0F8FAFFF7B8FF2E
:1043E0000DF0C2FF0DF094F90FCE05AD0FC5336887
:1043F0002B60214605A804F00DFA084B18600AB09E
:1044000070BD00BFA4F400209C8D020898F4002029
:10441000A0F400209CF40020ACF4002094F40020D0
:1044200010B5144C144A2368934205D0134A9342A2
:1044300006D02A2B0ED110BD114B00BF013BFCD181
:10444000104B2360104B83F30888104B1B68984770
:104450002368EEE72A232360BFF34F8F0C490D4BEF
:10446000CA6802F4E0621343CB60BFF34F8F00BF12
:10447000FDE700BFEC06002075FEADDEEFBEADDE51
:1044800000A86100EDFEFECA000002200400FF1F2C
:1044900000ED00E00400FA0570B594B0294A2A4BFB
:1044A00000200190116C41F080511164126C02F0F7
:1044B00080520192019A02901A6842F480421A6076
:1044C0001B6803F48043029309224FF480330120D8
:1044D00002244FF48001042508920993A82207239F
:1044E0000D9008A8CDE90F15029E0E94129411921A
:1044F000139302F0B7FE00B1FEE74FF4A0524FF461
:10450000805305900F26052103A80494CDE90623C6
:10451000039603F097F8044600B1FEE703F02CF988
:104520000A4AA2FB00239809FDF780FD2846FDF703
:1045300097FD224631464FF0FF30FDF725FD14B0C0
:1045400070BD00BF0038024000700040D34D6210C3
:104550002549264B264A1B685288264870B50C68A8
:104560002549264D234442EA03421B0CC0E900239F
:1045700001F10C040846C3F303361B01AE5D00F8DD
:10458000016BA04243EA12734FEA0212F3D10023F7
:104590000B7302F02BFBFFF77FFF04F0F7FCFFF734
:1045A00087FA01F0CBFE01F01BFFFFF76DF8FFF774
:1045B00069F9FEF749FEFEF77FFE00F0B9F901F058
:1045C00063FFFFF70DF900F01FFCFEF7AFFEFEF7EB
:1045D000F9FE0B48FEF726FE0A48FEF723FEFFF71A
:1045E000CBFE04F009F9FEE7187AFF1F107AFF1FCF
:1045F000147AFF1FF8C3002000C40020888E020830
:104600001CF40020F0F20020034B02689A4200D014
:10461000704702F005BB00BF00200040FEE700BF6E
:104620000368B3F1A04F00D0704730B587B04FF4A6
:10463000C050002403220A2301A90190022510483A
:10464000CDE90423CDE9025406F0F0FC0D4B5A6B82
:1046500042F080025A6300945A6C42F480425A64D9
:104660005B6C03F480432246009305214320009BAA
:10467000FDF78AFC4320FDF7BFFC07B030BD00BF4B
:10468000000002400038024070B5D0F8EC5382B010
:1046900005F5027600F56F7104463046019102F08F
:1046A000C7F995F80832019903F06003402B03D154
:1046B00095F80932502B06D0D4F8EC0302B0BDE8CF
:1046C000704000F09BBCD5F81432B5F80E229B6800
:1046D000C5F8F82101223146C5F8F421284698474B
:1046E000B5F80E3203B908B102B070BD284602B069
:1046F000BDE87040FDF7ECBCC1EBC10300EB8303E8
:10470000D0F8EC03D3F8042200F0A8BCC1EBC1033D
:1047100000EB8303D0F8EC035A6C00F0D3BC00BF6D
:10472000D0F8EC0300F05ABD10B5C168044600395A
:10473000D0F8EC0318BF012100F03AFDD4F8EC03E7
:10474000BDE8104000F014BD10B50446D0F8EC03ED
:1047500000F032FD2268D2F8003E43F00103C2F8B7
:10476000003E236A23B1034A136943F00603136131
:1047700010BD00BF00ED00E0D0F8EC0300F026BD56
:10478000D0F8EC0300F03ABDD0F8EC0300F034BDF3
:10479000D0F8EC0300F034BDD0F8EC0300F032BDEB
:1047A00002780AB10020704738B5194B0221C3F8CE
:1047B000EC034FF0A0450624C0F820321846C3E9A8
:1047C0000422C3E90722C3E90B22C3E900545A6259
:1047D000D960996101F0F2F8A0B980210C48FFF787
:1047E00063F9402200210A48FFF738F940220121ED
:1047F0000748FFF733F9402203210548FFF72EF958
:10480000002038BD03484FF4AC71FFF707FFE4E721
:10481000B0F400209C8E020808B5D0F8200201F008
:1048200039F9032896BF024B0220185C08BD00BF6F
:10483000B88E020810B51446D0F820021A46234656
:1048400001F05EFC032896BF014B0220185C10BDEE
:10485000B88E020808B5D0F8200201F091FC0328B8
:1048600096BF024B0220185C08BD00BFB88E02083C
:1048700008B5D0F8200201F009FD032896BF024BCD
:104880000220185C08BD00BFB88E020808B5D0F839
:10489000200201F02BFD032896BF024B0220185C7A
:1048A00008BD00BFB88E02080A06D0F8203206D430
:1048B000C1EBC10103EB810191F8FA01704701F0EE
:1048C0007F01C1EBC10103EB810191F83A00704710
:1048D00008B5D0F8200201F001FC032896BF024B76
:1048E0000220185C08BD00BFB88E020808B5D0F8D9
:1048F000200201F0A7FC032896BF024B0220185C9F
:1049000008BD00BFB88E020808B5D0F8200201F03B
:1049100067FC032896BF024B0220185C08BD00BF4D
:10492000B88E020808B5D0F8200201F081FC08BD5D
:10493000114838B5114B03604FF4827201234FF4D4
:1049400000654FF400741821426043610A2200237D
:10495000C0E90641C0E90833C560C26283600361F3
:104960008362FFF72DF900B938BDBDE8384004482F
:104970005221FFF753BE00BFA0F80020003C0040CA
:10498000BC8E02083D4B02689A4200D0704770B559
:1049900086B0002503F5FE3300951A6C384E42F4BC
:1049A00000421A641B6C03F4004300934FF4E0537D
:1049B0000446022201930123324800990292039394
:1049C0000322062301A90492059306F02FFBE36856
:1049D0002D48756040214FF48062F5603060B16011
:1049E0003261002B32D1C6E9053300234FF4803207
:1049F0002348F361C6E9082300F010FC002838D1F1
:104A0000224DE2682248A66400234FF48061C5E984
:104A10000133B46328602961EB60F2B9C5E905226E
:104A200000234FF480321948EB61C5E9082300F0F8
:104A3000F5FBC8B900220521E5643320AC63FDF71E
:104A4000A3FA3320FDF7D8FA06B070BD4FF4006228
:104A50004FF40053C6E90523C7E74FF400624FF453
:104A60000053C5E90523DBE70A489B21FFF7D6FD84
:104A7000E0E708488421FFF7D1FDC1E7003C004092
:104A8000F8F80020000802408860024058F9002031
:104A900010600240BC8E02080D4B02689A4200D0A2
:104AA00070470C4A136C10B523F40043044613649A
:104AB0004FF4E051084806F0E1FBA06C00F048FC20
:104AC000E06C00F045FCBDE810403320FDF7A0BAD3
:104AD000003C004000380240000802400A4B1B68BE
:104AE000013308D04FF0500383F31188BFF36F8F69
:104AF000BFF34F8FFEE74FF0500383F31188BFF3EE
:104B00006F8FBFF34F8FFEE700000020064800685C
:104B1000006880F3088862B661B6BFF34F8FBFF3B9
:104B20006F8F00DF00BF000008ED00E0DFF80C0031
:104B3000016841F4700101607047000088ED00E0F9
:104B400030B421F00101094C40F80C4C4FF0807555
:104B50006FF0020340F8045C40F8081C40F8202C79
:104B600040F8243C30BC4438704700BFDD4A0008A0
:104B7000074B19680868B0E8F04F80F30988BFF365
:104B80006F8F4FF0000080F311887047AFF3008003
:104B9000D40700204FF0500383F31188BFF36F8FC9
:104BA000BFF34F8F0A4A13680133012B136000D003
:104BB0007047084B1B6813F0FF0FF9D04FF05003FC
:104BC00083F31188BFF36F8FBFF34F8FFEE700BFF2
:104BD0000000002004ED00E0084A136843B94FF0DC
:104BE000500383F31188BFF36F8FBFF34F8FFEE73E
:104BF000013B13600BB983F311887047000000205C
:104C0000EFF30980BFF36F8F154B1A681EF0100F7A
:104C100008BF20ED108A20E9F04F10604DF8043DE8
:104C20004FF0500080F31188BFF34F8FBFF36F8FA9
:104C300004F0FEFE4FF0000080F3118808BC1968F4
:104C40000868B0E8F04F1EF0100F08BFB0EC108AF3
:104C500080F30988BFF36F8F704700BFAFF3008008
:104C6000D407002008B54FF0500383F31188BFF339
:104C70006F8FBFF34F8F04F02FFD18B1034B4FF030
:104C800080521A60002383F3118808BD04ED00E010
:104C9000064B07491B680748074AA1FB03139B09FA
:104CA000013B072103601160704700BFF401002041
:104CB000D34D621014E000E010E000E0324B334AC4
:104CC0001968914256D01A68314B9A4249D010B5B2
:104CD000304B314C1A78314982B0D2B2FF20019268
:104CE00018701B78DBB28DF803309DF803309DF807
:104CF000032003F0500307202370140608600ED52C
:104D000006229DF803305B00DBB28DF803309DF87E
:104D100003000006134602F1FF32F2D40B600B6869
:104D200001981C4C1E4A1B02C0B203F4E0630B60E6
:104D30002070136843F470031360136843F07043EA
:104D40001360FFF7A5FF174B00221A60FFF7EEFE76
:104D5000154A136843F040431360FFF7D7FEFFF78F
:104D6000BDFE4FF0500383F31188BFF36F8FBFF385
:104D70004F8FFEE74FF0500383F31188BFF36F8F1F
:104D8000BFF34F8FFEE700BF00ED00E071C20F419F
:104D900070C20F4100E400E00C0700201007002063
:104DA00020ED00E00000002034EF00E0EFF3058389
:104DB0000F2B0ED91049114A5B5C12789A4208D920
:104DC0004FF0500383F31188BFF36F8FBFF34F8F02
:104DD000FEE70B4B0B4A1B68126803F4E063934237
:104DE00008D94FF0500383F31188BFF36F8FBFF3DF
:104DF0004F8FFEE7704700BFF0E300E00C07002094
:104E00000CED00E0100700200C4808B50C4B0360C7
:104E10004FF4E13100230C22C0E90233C0E906332C
:104E200041604261036102F04BFE00B908BDBDE87C
:104E3000084004484E21FFF7F1BB00BF18FA0020DC
:104E4000004C0040D08E0208394B02689A4200D0D4
:104E500070472DE9F04387B0002503F5F633009540
:104E60001A6C344E42F400221A641B6C03F40023C3
:104E700000930227012301A94FF003094FF008080E
:104E800004462D48009A0193CDE90277CDE90498B4
:104E900006F0CCF8CDE901772748284FCDF81480EB
:104EA00001A9CDE9035906F0C1F84FF000614FF4B4
:104EB00080624FF480733046C6E90555C6E908554F
:104EC000C6E90071B560F5603261F36100F0A6F9E2
:104ED00020BB1B4D1B4866634FF0006340214FF41D
:104EE000806228606B6028460023C5E90332C5E96B
:104EF0000533C5E90733B463A9606B6200F08EF92E
:104F000088B92563002205213420AC63FDF73CF805
:104F10003420FDF771F807B0BDE8F0830A487F211F
:104F2000FFF77CFBD5E708489121FFF777FBE8E71F
:104F3000004C0040B8F900200000024040600240F0
:104F400058FA002070600240D08E02080D4B0268B3
:104F50009A4200D070470C4A136C10B523F400231A
:104F6000044613640321094806F088F9606B00F0D9
:104F7000EFF9206B00F0ECF9BDE810403420FDF7AC
:104F800047B800BF004C004000380240000002401B
:104F900088B108B5D0F8143213B10023C0F8143228
:104FA00009B1C0F810120123027080F8FC31FFF73C
:104FB000F7FB002008BD0220704700BF19B1C0F800
:104FC0001412002070470220704700BF08B5FFF799
:104FD00023FC002008BD00BF08B5D0F814321BB177
:104FE0001B68984700B908BD022008BD08B5D0F875
:104FF00014325B689847002008BD00BF38B50446EE
:1050000000F50275284601F013FD94F80812B4F873
:105010000E32C4F8F831012201F01F039342C4F8A4
:10502000F42109D0022B13D063B101F08001204696
:10503000FFF71EFC002038BD2946204601F06EFC1B
:10504000002038BD2946204601F016FB002038BD5F
:105050002946204601F080FC002038BD10B50446EA
:1050600031B91346D0F8F421032A0DD0002010BD29
:10507000D0F814329B69002BF8D090F8FC21032A59
:10508000F4D19847002010BDD0E9431291420DD8C9
:10509000D0F814321B6923B190F8FC21032A00D107
:1050A00098472046FDF714F8002010BD891A8A425F
:1050B00028BF0A4692B2C0F80C111946FDF700F855
:1050C000D4E700BF70B5044651B91346D0F8F421B7
:1050D000022A16D094F80032012B0DD0002070BDAA
:1050E000D0F814325B69002BF8D090F8FC21032A29
:1050F000F4D19847002070BD002384F800320020CE
:1051000070BDD0E90726B24221D88369B3FBF6F51A
:1051100006FB15355DB99E4209D8D0F8F8219342B7
:1051200005D22A46FCF7B6FFC4F8F85116E0D4F8C9
:105130001432DB681BB194F8FC21032A15D02046F9
:10514000FCF7D2FF94F80032012BC7D1D4E7921BB1
:105150000D46C261194692B2FCF79CFF2B462A46C7
:1051600029462046FFF7D0FBB4E720469847E6E7FC
:1051700038B50022044640231D461146FFF75AFB6E
:105180002B460022C4F8105120468021FFF752FB25
:10519000D4F818322562012284F8FC212BB1D4F80E
:1051A000143221795B6820469847002038BD00BF43
:1051B00001740020704700BF90F8FC2180F8FD21A9
:1051C000042380F8FC310020704700BF0346002014
:1051D00093F8FD2183F8FC21704700BF90F8FC2173
:1051E000032A01D00020704708B5D0F81432DB69DB
:1051F00003B19847002008BD002070470020704789
:105200000020704708B5D0F81422012180F8FC1165
:10521000526801799047002008BD00BFF8B50446E8
:1052200001F00AFD002C54D023680222002184F8EA
:10523000341084F835201A6822F0010205461A60FD
:1052400005E001F0F9FC431B052B3BD823681A68E5
:10525000D107F6D4D4E90126D4E903503243616979
:105260001F682A43D4E9066502430A43206A354988
:1052700032432A430243606A3940042841EA02016A
:1052800029D019605A6922F007021043DAB22E4978
:105290005861103AA1FB020109092C4823F47F73DD
:1052A000415CE16523F003035F2A88BF04333F229A
:1052B0008A4001250021A3659A60616584F8355014
:1052C0000846F8BD03232022626584F8353018466D
:1052D000F8BD0120F8BDD4E90B5028430143A26A70
:1052E0001960586920F00700104340F00400002DB9
:1052F000CCD07EB1B6F5005F12D0022A03D9032AC2
:10530000C4D1EA01C2D501234022626584F8353058
:105310001846F8BD012A11D032F00202B6D1F0E7EA
:10532000032AB3D801A151F822F000BF07530008A7
:1053300003530008075300083D530008B5F1C07F30
:10534000A4D1E0E73F8010F0ABAAAAAAE88E020839
:1053500030B400282FD090F83530022BDCB227D0A3
:105360000368174A1C68174DD9B21039A2FB01C255
:10537000120924F001041C60AD5C212400221A6093
:105380005A609A60DA601A615C6123F47F7323F0DB
:1053900003035F2988BF04333F210022A940C5656C
:1053A000836514469960426580F8342080F8352082
:1053B000204630BC70470124204630BC704700BFF7
:1053C000ABAAAAAAE88E0208F0B490F83440866D21
:1053D000012C38D090F835400125AC4280F834508B
:1053E00005D0002380F83430F0BC022070470468F8
:1053F0000227002580F8357045652568876825F403
:105400008025402F256063600ABFA260A160E16033
:10541000C16D18BFE2603F238B40026CB36023680C
:1054200043F016032360636943F0800363611AB19C
:10543000236843F008032360236843F001032360DB
:105440000020F0BC70470220F0BC704770B50446E5
:10545000866D01F0F1FB94F83530022B06D0002365
:10546000802284F834306265012070BD2368216C8D
:105470001A6822F016021A605A6922F08002054664
:105480005A6131B31A6822F008021A601A6822F0D1
:1054900001021A6005E001F0CFFB431B052B0FD87A
:1054A00023681B6813F00103F5D1E16D3F228A40A8
:1054B0000121B26084F8343084F83510184670BD8C
:1054C000202200230320626584F8343084F83500FC
:1054D00070BDA26C002AD5D1D8E700BF90F8353056
:1054E000022B03D080234365012070470268052307
:1054F00080F83530136823F00103136000207047F3
:105500002DE9F04182B00023866D0193C36D3468AC
:10551000714908229A4022420D68804604D00168F1
:105520000F68780700F18A8001229A40224204D055
:10553000D8F800104969090678D404229A4022421A
:1055400004D0D8F8001009688F0767D410229A4059
:10555000224204D0D8F800100F68380749D420221E
:105560009A40224217D0D8F800100C68E00612D5F5
:10557000B26098F83520052A73D00B6813F4802F99
:105580000B6800F09080190340F19B80D8F83C3004
:105590000BB140469847D8F854303BB3D8F8543054
:1055A000DA071BD5D8F800204C49052388F8353098
:1055B0001368A1FB051523F001031360AD0A02E097
:1055C0001368DB0704D5019B0133AB420193F7D984
:1055D0000022012388F8342088F83530D8F84C3080
:1055E00023B1404602B0BDE8F041184702B0BDE823
:1055F000F081B2600A6812F4802F0A682AD1D705B8
:1056000003D40A6822F008020A60D8F84020002A71
:10561000A5D040469047D8F85C30A0E7B260D8F8F3
:10562000542042F00402C8F854208FE7B260D8F842
:10563000542042F00202C8F854207EE70F6827F099
:1056400004070F60B260D8F8542042F00102C8F895
:10565000542069E71203D8D5D8F84820002AD8D1B9
:105660007DE70A68D8F8404022F016020A604A69CD
:1056700022F080024A6154B30A6822F008020A60EC
:105680003F22D8F8501002FA03F300240122B3603D
:1056900088F8344088F835200029A7D0404602B069
:1056A000BDE8F041084713F480737FF46FAF0A68D8
:1056B000012422F010020A6088F8343088F835405E
:1056C00064E7D8F84430002B7FF463AF63E7D8F881
:1056D0004820002AD0D1D3E7F4010020B5814E1B29
:1056E00010B4154B1A461B688342FBD351685418FB
:1056F000A0420AD041684418A3420DD090420360F2
:105700005DF8044B18BF10607047406801441046B4
:105710004418A3425160F1D1084C2468A342EDD053
:10572000D3E9003490422144036041605DF8044BAA
:1057300018BF1060704700BF240700201407002026
:105740002DE9F041404F044603F0B0FF3B68002BC9
:1057500039D03E4B1D682C422FD174B304F108039D
:1057600061071CBF23F00703083333B3DFF8EC8075
:10577000D8F800609E4220D335490C6803E02068C9
:1057800020B12146044662689A42F8D33868A042A4
:1057900013D020680F680860D11A102907F1080794
:1057A00039D9E018420731D04FF0500383F3118804
:1057B000BFF36F8FBFF34F8FFEE704F03DF8002774
:1057C0003846BDE8F081234B234E214D580714BFC6
:1057D000DA1D1A4603F58033A3F1080323F007030B
:1057E0001E483B6018BF22F0070211469A1A326029
:1057F0000260164E0020C3E9000068604A604FF066
:1058000000420B60326029601546A4E74160636086
:10581000FFF766FF626810480168B61A00232A4342
:105820008E42C4E9003238BF0660C8F8006004F058
:1058300003F87B07C4D04FF0500383F31188BFF304
:105840006F8FBFF34F8FFEE714070020180700206B
:105850002407002000000010200700201C07002063
:10586000E0B1194A50F8043C1268134210B50446DE
:105870000BD050F8081C91B14FF0500383F31188FE
:10588000BFF36F8FBFF34F8FFEE74FF0500383F3EB
:105890001188BFF36F8FBFF34F8FFEE7704723EA86
:1058A000020340F8043C03F001FF084A54F8043CAA
:1058B0001168A4F108000B441360FFF711FFBDE865
:1058C000104003F0B9BF00BF180700201C070020DC
:1058D000014B1868704700BF200700200020704768
:1058E00008B509681CF0D6FA002008BD10B50C4CAC
:1058F0000C4901232046002203F0B8F90A4920464A
:10590000012203F0C7F9032308492046002203F0CF
:10591000ADF907492046032203F0BCF9002010BD71
:10592000F4FE002038FB0020B8FA002078FB0020AD
:10593000F8FA0020212801D000207047002310B47D
:105940000120C22408224C7088705DF8044B0B7053
:105950000020CB700B714B718A717047402923D89E
:10596000134B012A70B5D3F818320D46144618D0DF
:10597000032A1BD10F4E5C331B7A83B901462A469A
:1059800030461EF0DFF8314623462A46084803F029
:105990006DF921460648BDE8704003F08BB901203F
:1059A00070BD054E4433E7E702207047022070BD0A
:1059B000F4FE002078FB002038FB0020002866D091
:1059C000F0B5032305468BB080F8B9330446FEF7E3
:1059D00027FE2868FDF70EF854F810CB26460FCEA8
:1059E0006F460FC70FCE0FC796E8030087E8030086
:1059F0002E1D96E80E006046FCF7B8FF00212868CF
:105A0000FDF700F8002108462B462A46012782F8B8
:105A10003810D18701310F29C2E9100082F839709E
:105A200082F83B00D06402F11C02F0D100222F6802
:105A3000114602F1400083F8F821DA8707EB800075
:105A400001320F2AC3E9801183F8F91183F8FB11A1
:105A5000C3F80C1203F11C034160EAD10FCCEC46F1
:105A6000ACE80F000FCCACE80F0094E803008CE822
:105A70000300384696E80E00FCF7DEFF0123286895
:105A800085F8B933FDF74CFB00200BB0F0BD0120C9
:105A9000704700BF90F8B833012B0ED010B501232A
:105AA000044680F8B8330068FDF72CFB2068FCF74B
:105AB00099FF002084F8B80310BD0220704700BF92
:105AC0002DE9F04FD0F8008087B004464046FDF73E
:105AD00067FB10B107B0BDE8F08F05462068FDF701
